:100000000205DF0202ABE86480F8E933E8336011EF
:100010000460F0ED33EC337009E8FCE9FDEAFEEB37
:10002000FF220460DED3EB9FEA9EE99DE8C2E78CE5
:10003000F0C2F795F0400CE8CCF8E9CDF9EACEFA39
:10004000EBCFFB12027685D0F05804700320D5B3B5
:10005000E80470075002B2D50202B592D5EC0460F4
:10006000F7E4CCC0E0C398F8603B94186008400DFA
:10007000D0E0FB02028DE4FBFAC9FC8028E830E402
:1000800006E4C9FBE4CAFCE830E305E4C9CACBFCDA
:10009000E854076010F8C3E913F9EA13FAEB13FB0D
:1000A000EC13FCD8F130F52FC3E49CFCEF9BFFEE82
:1000B0009AFEED99FDD0E0FBEF4E4D4C701222DB25
:1000C000030202B2EC2CFCEF33FFEE33FEED33FD06
:1000D000ED30E7EB02028DEF2BFFEE3AFEED39FD3E
:1000E000D0E0FB50130BBB00030202B5ED13FDEE95
:1000F00013FEEF13FFEC13FC02028DEC4D6011E8D0
:10010000497017ED33EC3304600DE4FCFFFEFD2273
:10011000E933E8330470F80202AB12027658046047
:1001200009E4CC248150062850090202B528400376
:100130000202B2C0E0EB4A7044B98006D0E0FB0294
:1001400002A1EF4E701CBD8008EBFFEAFEE9FD80C6
:10015000EBE98DF0A4FEE5F00201E4E9CDF9EAFE59
:10016000EBFFEF89F0A4FCE5F0CE89F0A42EFFE4CC
:1001700035F0CD89F0A42DFEE435F08067EF4E70A8
:1001800005BD80D780C3EF8BF0A4ACF0EE8BF0A45C
:100190002CFCE435F0F8EF8AF0A42CE5F038FCE410
:1001A00033CB8DF0A42CFCE5F03BF8EE8AF0A42CC8
:1001B000FCE5F038F8E433CF89F0A42CFCE5F03806
:1001C000CF3400CE89F0A42FFFE5F03EFEE433C922
:1001D0008DF0A42EFEE5F039CD8AF0A42FFFE5F0D6
:1001E0003EFEE43DFD33D0E0FB50070BBB000F02A9
:1001F00002B5EC2CFCEF33FFEE33FEED33FD0202D3
:100200008D75F020800E75F010800575F0087D006A
:100210007E007F003392D530D503120315EC3340B6
:1002200010EF33FFEE33FEED33FDEC33FCD5F0ED94
:1002300022E5F0247EA2D513CC92E7CDCEFF22EDAD
:10024000D2E7CD33EC3392D524814006E4FFFEFDA6
:10025000FC22FCE4CFCECDCC24E0501174FF80ED25
:10026000C3CC13CCCD13CDCE13CECF13CF0470F0AF
:1002700030D5DE020315E9D2E7C933E833F892D569
:10028000EDD2E7CD33EC33FC5002B2D522EC30E7AF
:10029000100FBF000C0EBE00080DBD00040BEB607C
:1002A00014A2D5EB13FCED92E7FD2274FFFCFDFEDA
:1002B000FF22E480F8A2D574FF13FC7D80E480EF78
:1002C000BC000BBE0029EF8DF084FFADF022E4CC22
:1002D000F875F008EF2FFFEE33FEEC33FCEE9DECEB
:1002E000984005FCEE9DFE0FD5F0E9E4CEFD22ED31
:1002F000F8F5F0EE8420D21CFEADF075F008EF2F7B
:10030000FFED33FD4007985006D5F0F222C398FD6B
:100310000FD5F0EA22C3E49FFFE49EFEE49DFDE4D6
:100320009CFC228E108F11D3E51194FFE5109407E9
:10033000401A750840E511F4FFE510F4FEEF2401C2
:10034000F511E43EF510FCAD11E48007E4F508ACCE
:1003500010AD11120206E4FBFA7980783D1200FB21
:1003600012023F8E128F13AC10AD11E4120206E49C
:10037000FBFA7980783D1200FBC004C005C006C0BE
:1003800007AC12AD13E4120206A804A905AA06AB35
:1003900007D007D006D005D0041200067B007A40B3
:1003A000791C78461200FB12023F8E148F15AE1294
:1003B000AF137C007D641202C0EF4E7004F509801B
:1003C0000E74F62FF58274053EF583E493F509AEBD
:1003D00012AF137C007D641202C07E007F0ACFCD75
:1003E000CFCECCCE1202C074F62FF58274053EF546
:1003F00083E493F50AAE12AF137C007D0A1202C0AB
:1004000074F62DF58274053CF583E4934480F50B76
:10041000AE14AF157C277D101202C07E037FE8CF9B
:10042000CDCFCECCCE1202C074F62FF58274053E2D
:10043000F583E493F50CAE14AF157C037DE812024E
:10044000C07E007F64CFCDCFCECCCE1202C074F67A
:100450002FF58274053EF583E493F50DAE14AF15C8
:100460007C007D641202C07E007F0ACFCDCFCECC4F
:10047000CE1202C074F62FF58274053EF583E49324
:10048000F50EAE14AF157C007D0A1202C074F62D75
:10049000F58274053CF583E493F50F22E4FDEDC38A
:1004A0009408748094805067EDB40800504D900417
:1004B000B5F82828730204CD0204D10204D902043D
:1004C000DD0204E50204E90204F10204F5C2A2809F
:1004D00002D2A2C2A3C2A48022C2A28002D2A2D20D
:1004E000A3C2A48016C2A28002D2A2C2A3D2A480B8
:1004F0000AC2A28002D2A2D2A3D2A474082DF8E626
:10050000F5807F647E001205EBE4F5800D808F227C
:100510001205BC7FCC12057C7F4412057C7F647E73
:10052000001205AB1205BC7FCC12057C7FBE120504
:100530007C7F647E001205AB12054BAB0712054BA6
:10054000EFFE7C00E42BFFEC3EFE22E4FC7D08ED98
:10055000D394007480948040201205A5ECC313FC52
:10056000D2B77F027E001205AB30B7034304807F11
:10057000147E001205AB1D80D6AF0422AD077B08A8
:10058000EBD3940074809480401A1205A5ED139269
:10059000B77F287E001205ABD2B71205A7EDC313B3
:1005A000FD1B80DC22C2B77F017E00D3EF9400EEFA
:1005B00094004007EF1F70F31E80F022E4F510C294
:1005C000B77F907E011205ABD2B77F907E01020506
:1005D000ABE4F58012051012032312049C80F57819
:1005E0007FE4F6D8FD7581150205D1EF1FAC0670CA
:1005F000011E4C70F6223F065B4F666D7D077F6FD4
:06060000777C395E797180
:00000001FF
