:10000000020453EC4D6011E8497017ED33EC3304F2
:10001000600DE4FCFFFEFD22E933E8330470F802D2
:1000200001B312017E58046009E4CC2481500628F3
:1000300050090201BD2840030201BAC0E0EB4A703A
:1000400044B98006D0E0FB0201A9EF4E701CBD80D0
:1000500008EBFFEAFEE9FD80EBE98DF0A4FEE5F098
:100060000200ECE9CDF9EAFEEBFFEF89F0A4FCE534
:10007000F0CE89F0A42EFFE435F0CD89F0A42DFE5A
:10008000E435F08067EF4E7005BD80D780C3EF8BFD
:10009000F0A4ACF0EE8BF0A42CFCE435F0F8EF8A81
:1000A000F0A42CE5F038FCE433CB8DF0A42CFCE577
:1000B000F03BF8EE8AF0A42CFCE5F038F8E433CFFE
:1000C00089F0A42CFCE5F038CF3400CE89F0A42FC1
:1000D000FFE5F03EFEE433C98DF0A42EFEE5F039D5
:1000E000CD8AF0A42FFFE5F03EFEE43DFD33D0E0E5
:1000F000FB50070BBB000F0201BDEC2CFCEF33FFE4
:10010000EE33FEED33FD02019575F020800E75F0A3
:1001100010800575F0087D007E007F003392D53099
:10012000D5031201FEEC334010EF33FFEE33FEED4A
:1001300033FDEC33FCD5F0ED22E5F0247EA2D5139F
:10014000CC92E7CDCEFF22EDD2E7CD33EC3392D582
:1001500024814006E4FFFEFDFC22FCE4CFCECDCCA2
:1001600024E0501174FF80EDC3CC13CCCD13CDCE61
:1001700013CECF13CF0470F030D5DE0201FEE9D2EA
:10018000E7C933E833F892D5EDD2E7CD33EC33FC51
:100190005002B2D522EC30E7100FBF000C0EBE00AB
:1001A000080DBD00040BEB6014A2D5EB13FCED921F
:1001B000E7FD2274FFFCFDFEFF22E480F8A2D57467
:1001C000FF13FC7D80E480EFC2D5EC30E709B2D5A7
:1001D000E4C39DFDE49CFCEE30E715B2D5E4C39F7B
:1001E000FFE49EFE12020CC3E49DFDE49CFC800330
:1001F00012020C30D507C3E49FFFE49EFE22C3E445
:100200009FFFE49EFEE49DFDE49CFC22BC000BBE2F
:100210000029EF8DF084FFADF022E4CCF875F008F2
:10022000EF2FFFEE33FEEC33FCEE9DEC984005FC27
:10023000EE9DFE0FD5F0E9E4CEFD22EDF8F5F0EEEF
:100240008420D21CFEADF075F008EF2FFFED33FDDA
:100250004007985006D5F0F222C398FD0FD5F0EA7A
:1002600022120147AB07AA06C3EA648094805005B6
:100270007508408003E4F5087C277D10AF03AE02CB
:100280001201C874742FF58274043EF583E493F56B
:10029000097C277D10AF03AE021201C87E037FE800
:1002A000CFCDCFCECCCE1201C874742FF58274049A
:1002B0003EF583E493F50A7C037DE8AF03AE0212BA
:1002C00001C87E007F64CFCDCFCECCCE1201C874E2
:1002D000742FF58274043EF583E4934480F50B7C1F
:1002E000007D64AF03AE021201C87E007F0ACFCD4D
:1002F000CFCECCCE1201C874742FF58274043EF5B3
:1003000083E493F50CAE02AF037C007D641201C858
:100310007E007F0ACFCDCFCECCCE1201C874742D13
:10032000F58274043CF583E493F50D22E4FDEDC3FE
:10033000940674809480504AED146014146019146B
:10034000601A14601F14602024057022C2A280026B
:10035000D2A2C2A3C2A48016C2A28002D2A2D2A3F9
:10036000C2A4800AC2A28002D2A2C2A3D2A47408EC
:100370002DF8E6F5807F647E0012045FE4F5800DC1
:1003800080AC227D087C00C2B70FBF00000FBF0009
:1003900000D2B70FBF00000FBF0000A2B7E433C404
:1003A0003333335480FBE9C3134BF97E007F04EFF2
:1003B0001FAA0670011E4A70F6ED1D70011CED4C5F
:1003C00070C5AF01221204391204461203838F0E46
:1003D000120383EFFE7C00E4250EFDEC3EFC1201CF
:1003E0000EE4FBFA7980783D020003E4FDEDC3944E
:1003F00008748094805017C2B7EF1392B77E06AC92
:10040000061EEC70FAD2B7EFC313FF0D80DF22C2D5
:10041000B77FE012046AD2B77F3C12046A20B708A3
:100420007FF012046A7F01227F0022E4F58012032C
:10043000C512026112032C80F512040F7FCC120347
:10044000EB7F440203EB12040F7FCC1203EB7FBE61
:100450000203EB787FE4F6D8FD75810E02042BEFE2
:100460001FAC0670011E4C70F622AE071FEE600333
:0E0470000080F7223F065B4F666D7D077F6FB1
:00000001FF
