:1000000002046B0202ABE86480F8E933E833601164
:100010000460F0ED33EC337009E8FCE9FDEAFEEB37
:10002000FF220460DED3EB9FEA9EE99DE8C2E78CE5
:10003000F0C2F795F0400CE8CCF8E9CDF9EACEFA39
:10004000EBCFFB12027685D0F05804700320D5B3B5
:10005000E80470075002B2D50202B592D5EC0460F4
:10006000F7E4CCC0E0C398F8603B94186008400DFA
:10007000D0E0FB02028DE4FBFAC9FC8028E830E402
:1000800006E4C9FBE4CAFCE830E305E4C9CACBFCDA
:10009000E854076010F8C3E913F9EA13FAEB13FB0D
:1000A000EC13FCD8F130F52FC3E49CFCEF9BFFEE82
:1000B0009AFEED99FDD0E0FBEF4E4D4C701222DB25
:1000C000030202B2EC2CFCEF33FFEE33FEED33FD06
:1000D000ED30E7EB02028DEF2BFFEE3AFEED39FD3E
:1000E000D0E0FB50130BBB00030202B5ED13FDEE95
:1000F00013FEEF13FFEC13FC02028DEC4D6011E8D0
:10010000497017ED33EC3304600DE4FCFFFEFD2273
:10011000E933E8330470F80202AB12027658046047
:1001200009E4CC248150062850090202B528400376
:100130000202B2C0E0EB4A7044B98006D0E0FB0294
:1001400002A1EF4E701CBD8008EBFFEAFEE9FD80C6
:10015000EBE98DF0A4FEE5F00201E4E9CDF9EAFE59
:10016000EBFFEF89F0A4FCE5F0CE89F0A42EFFE4CC
:1001700035F0CD89F0A42DFEE435F08067EF4E70A8
:1001800005BD80D780C3EF8BF0A4ACF0EE8BF0A45C
:100190002CFCE435F0F8EF8AF0A42CE5F038FCE410
:1001A00033CB8DF0A42CFCE5F03BF8EE8AF0A42CC8
:1001B000FCE5F038F8E433CF89F0A42CFCE5F03806
:1001C000CF3400CE89F0A42FFFE5F03EFEE433C922
:1001D0008DF0A42EFEE5F039CD8AF0A42FFFE5F0D6
:1001E0003EFEE43DFD33D0E0FB50070BBB000F02A9
:1001F00002B5EC2CFCEF33FFEE33FEED33FD0202D3
:100200008D75F020800E75F010800575F0087D006A
:100210007E007F003392D530D5031202F6EC3340D6
:1002200010EF33FFEE33FEED33FDEC33FCD5F0ED94
:1002300022E5F0247EA2D513CC92E7CDCEFF22EDAD
:10024000D2E7CD33EC3392D524814006E4FFFEFDA6
:10025000FC22FCE4CFCECDCC24E0501174FF80ED25
:10026000C3CC13CCCD13CDCE13CECF13CF0470F0AF
:1002700030D5DE0202F6E9D2E7C933E833F892D589
:10028000EDD2E7CD33EC33FC5002B2D522EC30E7AF
:10029000100FBF000C0EBE00080DBD00040BEB607C
:1002A00014A2D5EB13FCED92E7FD2274FFFCFDFEDA
:1002B000FF22E480F8A2D574FF13FC7D80E480EF78
:1002C000C2D5EC30E709B2D5E4C39DFDE49CFCEE59
:1002D00030E715B2D5E4C39FFFE49EFE120304C3CA
:1002E000E49DFDE49CFC800312030430D507C3E4C5
:1002F0009FFFE49EFE22C3E49FFFE49EFEE49DFD7B
:10030000E49CFC22BC000BBE0029EF8DF084FFAD05
:10031000F022E4CCF875F008EF2FFFEE33FEEC335B
:10032000FCEE9DEC984005FCEE9DFE0FD5F0E9E457
:10033000CEFD22EDF8F5F0EE8420D21CFEADF07576
:10034000F008EF2FFFED33FD4007985006D5F0F28F
:1003500022C398FD0FD5F0EA22AB07AA06C3EA64D0
:100360008094805010750840EB1B70011A6303FFE6
:100370006302FF8003E4F508AD03AC02EC12020651
:100380008F118E108D0F8C0EE4FFFE7DC87C40AB6C
:1003900011AA10A90FA80E1200FBE4FBFAF9783F8E
:1003A00012000A12023FAA06AB077C277D10AF039A
:1003B000AE021202C074472FF58274063EF583E444
:1003C00093F5097C277D10AF03AE021202C07E03B5
:1003D0007FE8CFCDCFCECCCE1202C074472FF582AE
:1003E00074063EF583E493F50A7C277D10AF03AED7
:1003F000021202C07E037FE8CFCDCFCECCCE120258
:10040000C07E007F64CFCDCFCECCCE1202C0744769
:100410002FF58274063EF583E4934480F50B7C004F
:100420007D64AF03AE021202C07E007F0ACFCDCF43
:10043000CECCCE1202C074472FF58274063EF583EF
:10044000E493F50CAE02AF037C007D641202C07E23
:10045000007F0ACFCDCFCECCCE1202C074472DF58F
:100460008274063CF583E493F50D22787FE4F6D898
:10047000FD7581110204B2020615E493A3F8E4931A
:10048000A34003F68001F208DFF48029E493A3F887
:100490005407240CC8C333C4540F4420C8834004F9
:1004A000F456800146F6DFE4800B010204081020B8
:1004B000408090062EE47E019360BCA3FF543F3041
:1004C000E509541FFEE493A360010ECF54C025E05C
:1004D00060A840B8E493A3FAE493A3F8E493A3C814
:1004E000C582C8CAC583CAF0A3C8C582C8CAC583A5
:1004F000CADFE9DEE780BEE4FDEDC39406748094B4
:1005000080504AED14601414601914601A14601FAE
:1005100014602024057022C2A28002D2A2C2A3C20B
:10052000A48016C2A28002D2A2D2A3C2A4800AC210
:10053000A28002D2A2C2A3D2A474082DF8E6F5804C
:100540007F647E00120623E4F5800D80AC227D08D6
:100550007C00C2B70FBF0000D2B70FBF00000FBFB3
:100560000000A2B7E433F50EC43333335480FBE903
:10057000C3134BF97E007F04EF1F70011EED1D7049
:10058000011CED4C70CCAF01221205B97F017E0039
:100590001205E17FCCE4FDEDC39408748094805093
:1005A00017C2B7EF1392B77E06AC061EEC70FAD2F4
:1005B000B7EFC313FF0D80DF22C2B77B46AF031B2B
:1005C000EF70FAD2B7FB30B7157F017E001205E15C
:1005D0000BEBD394057480948040EB7F00227F0165
:1005E00022D3EF9400EE940040147D6E7C00ED1D4C
:1005F00070011CED4C70F7EF1F70E61E80E322E4E3
:10060000FFFE12063712063F12054EAA0712054ECC
:10061000EFFEEAFF22E4F5801205FF1203591204EF
:10062000F780F5EF1FAC0670011E4C70F62206082D
:10063000000000000000001205897F4402059512A9
:1006400005897FBE0205953F065B4F666D7D077F7E
:070650006F777C395E7971C0
:00000001FF
