:100000000205D20202ABE86480F8E933E8336011FC
:100010000460F0ED33EC337009E8FCE9FDEAFEEB37
:10002000FF220460DED3EB9FEA9EE99DE8C2E78CE5
:10003000F0C2F795F0400CE8CCF8E9CDF9EACEFA39
:10004000EBCFFB12027685D0F05804700320D5B3B5
:10005000E80470075002B2D50202B592D5EC0460F4
:10006000F7E4CCC0E0C398F8603B94186008400DFA
:10007000D0E0FB02028DE4FBFAC9FC8028E830E402
:1000800006E4C9FBE4CAFCE830E305E4C9CACBFCDA
:10009000E854076010F8C3E913F9EA13FAEB13FB0D
:1000A000EC13FCD8F130F52FC3E49CFCEF9BFFEE82
:1000B0009AFEED99FDD0E0FBEF4E4D4C701222DB25
:1000C000030202B2EC2CFCEF33FFEE33FEED33FD06
:1000D000ED30E7EB02028DEF2BFFEE3AFEED39FD3E
:1000E000D0E0FB50130BBB00030202B5ED13FDEE95
:1000F00013FEEF13FFEC13FC02028DEC4D6011E8D0
:10010000497017ED33EC3304600DE4FCFFFEFD2273
:10011000E933E8330470F80202AB12027658046047
:1001200009E4CC248150062850090202B528400376
:100130000202B2C0E0EB4A7044B98006D0E0FB0294
:1001400002A1EF4E701CBD8008EBFFEAFEE9FD80C6
:10015000EBE98DF0A4FEE5F00201E4E9CDF9EAFE59
:10016000EBFFEF89F0A4FCE5F0CE89F0A42EFFE4CC
:1001700035F0CD89F0A42DFEE435F08067EF4E70A8
:1001800005BD80D780C3EF8BF0A4ACF0EE8BF0A45C
:100190002CFCE435F0F8EF8AF0A42CE5F038FCE410
:1001A00033CB8DF0A42CFCE5F03BF8EE8AF0A42CC8
:1001B000FCE5F038F8E433CF89F0A42CFCE5F03806
:1001C000CF3400CE89F0A42FFFE5F03EFEE433C922
:1001D0008DF0A42EFEE5F039CD8AF0A42FFFE5F0D6
:1001E0003EFEE43DFD33D0E0FB50070BBB000F02A9
:1001F00002B5EC2CFCEF33FFEE33FEED33FD0202D3
:100200008D75F020800E75F010800575F0087D006A
:100210007E007F003392D530D503120315EC3340B6
:1002200010EF33FFEE33FEED33FDEC33FCD5F0ED94
:1002300022E5F0247EA2D513CC92E7CDCEFF22EDAD
:10024000D2E7CD33EC3392D524814006E4FFFEFDA6
:10025000FC22FCE4CFCECDCC24E0501174FF80ED25
:10026000C3CC13CCCD13CDCE13CECF13CF0470F0AF
:1002700030D5DE020315E9D2E7C933E833F892D569
:10028000EDD2E7CD33EC33FC5002B2D522EC30E7AF
:10029000100FBF000C0EBE00080DBD00040BEB607C
:1002A00014A2D5EB13FCED92E7FD2274FFFCFDFEDA
:1002B000FF22E480F8A2D574FF13FC7D80E480EF78
:1002C000BC000BBE0029EF8DF084FFADF022E4CC22
:1002D000F875F008EF2FFFEE33FEEC33FCEE9DECEB
:1002E000984005FCEE9DFE0FD5F0E9E4CEFD22ED31
:1002F000F8F5F0EE8420D21CFEADF075F008EF2F7B
:10030000FFED33FD4007985006D5F0F222C398FD6B
:100310000FD5F0EA22C3E49FFFE49EFEE49DFDE4D6
:100320009CFC228E108F11D3E51194FFE5109407E9
:10033000401A750840E511F4FFE510F4FEEF2401C2
:10034000F511E43EF510FCAD11E48007E4F508ACCE
:1003500010AD11120206E4FBFA7980783D1200FB21
:1003600012023F8E128F13AC10AD11E4120206E49C
:10037000FBFA7980783D1200FBC004C005C006C0BE
:1003800007AC12AD13E4120206D003D002D001D0A4
:1003900000120006E4FBFA797A78441200FB12029C
:1003A0003F8E148F15AE12AF137C007D641202C015
:1003B00074E92FF58274053EF583E493F509AE12D6
:1003C000AF137C007D641202C07E007F0ACFCDCFC8
:1003D000CECCCE1202C074E92FF58274053EF583AF
:1003E000E493F50AAE12AF137C007D0A1202C074CA
:1003F000E92DF58274053CF583E4934480F50BAE5A
:1004000014AF157C277D101202C0AA04AB057DE84D
:100410007C03AF03AE021202C074E92FF5827405AB
:100420003EF583E493F50C7DE87C03AF03AE021246
:1004300002C07E007F64CFCDCFCECCCE1202C0747E
:10044000E92FF58274053EF583E493F50DAE14AF04
:10045000157C007D641202C0AA04AB057D0A7C00F5
:10046000AF03AE021202C074E92FF58274053EF5A7
:1004700083E493F50E7D0A7C00AF03AE021202C046
:1004800074E92DF58274053CF583E493F50F22E4BD
:10049000FDEDC39408748094805067EDB40800505B
:1004A0004D9004A8F82828730204C00204C4020472
:1004B000CC0204D00204D80204DC0204E40204E802
:1004C000C2A28002D2A2C2A3C2A48022C2A280027F
:1004D000D2A2D2A3C2A48016C2A28002D2A2C2A378
:1004E000D2A4800AC2A28002D2A2D2A3D2A474084B
:1004F0002DF8E6F5807F647E001205DEE4F5800DC0
:10050000808F221205AF7FCC12056F7F4412056FDA
:100510007F647E0012059E1205AF7FCC12056F7FAF
:10052000BE12056F7F647E0012059E12053EAB076A
:1005300012053EEFFE7C00E42BFFEC3EFE22E4FCC5
:100540007D08EDD39400748094804020120598ECCF
:10055000C313FCD2B77F027E0012059E30B703435F
:1005600004807F147E0012059E1D80D6AF0422AD4C
:10057000077B08EBD3940074809480401A1205988E
:10058000ED1392B77F287E0012059ED2B712059A0E
:10059000EDC313FD1B80DC22C2B77F017E00D3EFC9
:1005A0009400EE94004007EF1F70F31E80F022E4E9
:1005B000F510C2B77F907E0112059ED2B77F907E64
:1005C0000102059EE4F58012050312032312048F35
:1005D00080F5787FE4F6D8FD7581150205C4EF1F1C
:1005E000AC0670011E4C70F6223F065B4F666D7DB7
:0905F000077F6F777C395E797199
:00000001FF
