:1000000002031B8F0A8D0BD3E50B94077480948039
:1000100040037F0022D3E50A9480748094804003DB
:100020007F002274B0250BF50B120226700302002C
:10003000FEAF0B1202F9E50AC4540FF50CE50A54A1
:100040000FF50D1202EFE4FEEEC39410748094805D
:1000500040030200F4120226FF75F023EEA42427C9
:10006000F582E5F03403F583E4936F60030200F05A
:1000700090000112023FFF75F023EEA42428F582C0
:10008000E5F03403F583E4936F706590000212028B
:100090003FFF75F023EEA42429F582E5F03403F543
:1000A00083E4936F704AFDEDF582758300C394205D
:1000B000748094805032E5826410700AE50B04FF6E
:1000C0001202F91202EF75F023EEA4242AF582E55C
:1000D000F03403F583E5822DF582E43583F583E47E
:1000E00093FF12030A0D80BF7410250AF50A8004DD
:1000F0000E020048740329F9E43AFA0200297F014C
:10010000221201C412026C7FA01202F97FC81202EF
:10011000F9E4F508C3E5089408748094805034E548
:100120000824B0FF1202F97F101202F9E4FF120254
:10013000F9E4F509C3E50994807480948050107F38
:10014000FF12030A7F027E001202A0050980E50566
:100150000880C17FA11202F97FC01202F9E4F508FC
:10016000C3E5089408748094805034E50824B0FFF7
:100170001202F97F101202F97F041202F9E4F50964
:10018000C3E5099480748094805010E4FF12030A40
:100190007F027E001202A0050980E5050880C17F6C
:1001A000A01202F97FC81202F97BFF7A057957E4A1
:1001B000FDFF1200037BFF7A0579707D02E4FF12D8
:1001C000000380FEC2B37F017E001202CFC2B2D212
:1001D000B37FE21202F97F011202CF7FA01202F96F
:1001E0007FC81202F97FA61202F97FA41202F97FDA
:1001F000A21202F97FF81202F97F011202F97F813F
:100200001202F97F231202F97F251202F97F2F12C1
:1002100002F97F011202CF7F401202F97FAF120272
:10022000F97F010202CFBB010689828A83E0225056
:1002300002E722BBFE02E32289828A83E49322BB87
:10024000010CE58229F582E5833AF583E022500628
:10025000E92582F8E622BBFE06E92582F8E222E5DE
:100260008229F582E5833AF583E49322E4FEEEC326
:100270009408748094805027EE24B0FF1202F97F16
:10028000101202F9E4FF1202F9FDEDC394807480AC
:1002900094805008E4FF12030A0D80EE0E80CF22F6
:1002A000D3EF9400EE940040257D26EDD3940074A6
:1002B00080948040127C82ECD394007480948040BF
:1002C000031C80F31D80E4EF1F70D51E80D222E452
:1002D000FDFCE4FBFAC3EB9FEA9E50070BBB000159
:1002E0000A80F20DBD00010CED64634C70E422E560
:1002F0000C2410FF1202F9AF0DC2B2C2A6D2A5C2E1
:10030000A700008F800000D2A722C2B2D2A6D2A539
:10031000C2A700008F800000D2A722787FE4F6D821
:10032000FD75810D020101E4B8AD00F80808080868
:1003300008FF0808080808FC080000030101010183
:1003400001FF0101010101030000E696870808088A
:10035000186888090E0808C838080C080080804012
:100360004020110A040A11102040C04000E6B58B5D
:1003700010226C0080FC04F404FE04F800FE00006F
:100380000404FE014027100F10670047807F000023
:10039000E8AF954042CC00109090909090FF1012E2
:1003A00014100000007F201020603F1010013E401C
:1003B000807000E5AD9700100C2424242526A46449
:1003C0002404140C0000020202020242827F020294
:1003D000020202030200E7ACA6201008876C948694
:1003E0009488878CF484C68400040201FF00000214
:1003F0000C0040807F00000000E8BE9388681FC8A2
:100400000C2890A8A6A1262810B01000090905FF05
:100410000500FF0A8AFF001F80FF0000E587BA0081
:1004200000FC40404040FF40404040FC00000000D5
:10043000FE40404040407F4040404040FE0000E5DC
:10044000B8B82018080AECA8A8AFA8A8EC0A082891
:1004500018000000003E020202FF0222423F02009A
:100460000000E794A80000FE22222222FE2222227F
:1004700022FF02000080601F020202027F0202428D
:10048000827F000000E6B1891022640C800474842D
:10049000040404C43E04000004047E0180402011D2
:1004A0000A040B1060C04000E5AD9700100C242436
:1004B000242526A4642404140C0000020202020273
:1004C00042827F0202020202030200E698BE00009E
:1004D00000FE92929292929292FF0200000040429D
:1004E000444D407F4040407F404944664000E7A47F
:1004F000BA40404242424242C242424243426040CB
:1005000000001008040640807F000002040C180060
:1005100000E6B58B10226C0080FC04F404FE04F8A5
:1005200000FE00000404FE014027100F1067004782
:10053000807F0000E8AF954042CC001090909090F2
:1005400090FF101214100000007F201020603F1058
:1005500010013E40807000E4B8ADE69687E6B58BAA
:10056000E8AF95E5AD97E7ACA6E8BE93E587BA009E
:10057000E5B8B8E794A8E6B189E5AD97E698BEE797
:09058000A4BAE6B58BE8AF9500C2
:00000001FF
