:1000000002038212022B1202D37FA01203607FC868
:10001000120360E4F508C3E50894087480948050E6
:1000200034E50824B0FF1203607F10120360E4FF80
:10003000120360E4F509C3E509948074809480504C
:10004000107FFF1203717F027E00120307050980F3
:10005000E5050880C17FA11203607FC0120360E440
:10006000F508C3E5089408748094805034E50824AA
:10007000B0FF1203607F101203607F04120360E47C
:10008000F509C3E5099480748094805010E4FF1250
:1000900003717F027E00120307050980E5050880D1
:1000A000C17FA01203607FC81203607BFF7A0379CF
:1000B0008EE4FDFF12012D7BFF7A0379A77D02E418
:1000C000FF12012D7FE87E031203077FA112036058
:1000D0007FC8120360E4F508C3E5089408748094AF
:1000E0008050487F40120360E50824B0FF1203608F
:1000F0007F101203607F04120360E4F509C3E50971
:10010000948074809480501F74C0250BF582740312
:10011000350AF583E493F4FF120371050BE50B70C8
:1001200002050A050980D6050880AD80FE8F0C8D7A
:100130000DD3E50D94077480948040037F0022D393
:10014000E50C94807480948040037F002274B02575
:100150000DF50D12028D7003020228AF0D1203601F
:10016000E50CC4540FF50EE50C540FF50F120356B1
:10017000E4FEEEC3941074809480400302021E12C9
:10018000028DFF75F023EEA424C0F582E5F034075C
:10019000F583E4936F600302021A9000011202A635
:1001A000FF75F023EEA424C1F582E5F03407F58352
:1001B000E4936F70659000021202A6FF75F023EEC3
:1001C000A424C2F582E5F03407F583E4936F704A06
:1001D000FDEDF582758300C39420748094805032C5
:1001E000E5826410700AE50D04FF120360120356E5
:1001F00075F023EEA424C3F582E5F03407F583E51A
:10020000822DF582E43583F583E493FF1203710DAB
:1002100080BF7410250CF50C80040E02017274036B
:1002200029F9E43AFA0201537F0122C2B37F017E29
:1002300000120336C2B2D2B37FE21203607F011212
:1002400003367FA01203607FC81203607FA61203EB
:10025000607FA41203607FA21203607FF812036024
:100260007F011203607F811203607F231203607F8E
:10027000251203607F2F1203607F011203367F4037
:100280001203607FAF1203607F01020336BB0106D9
:1002900089828A83E0225002E722BBFE02E32289A0
:1002A000828A83E49322BB010CE58229F582E583EF
:1002B0003AF583E0225006E92582F8E622BBFE06E5
:1002C000E92582F8E222E58229F582E5833AF58381
:1002D000E49322E4FEEEC39408748094805027EEE9
:1002E00024B0FF1203607F10120360E4FF1203606A
:1002F000FDEDC39480748094805008E4FF12037174
:100300000D80EE0E80CF22D3EF9400EE94004025B6
:100310007D26EDD394007480948040127C82ECD3CF
:1003200094007480948040031C80F31D80E4EF1FD0
:1003300070D51E80D222E4FDFCE4FBFAC3EB9FEAF9
:100340009E50070BBB00010A80F20DBD00010CEDB1
:1003500064634C70E422E50E2410FF120360AF0FBB
:10036000C2B2C2A6D2A5C2A700008F800000D2A749
:1003700022C2B2D2A6D2A5C2A700008F800000D2AE
:10038000A722787FE4F6D8FD75810F020003E4B858
:10039000ADE69687E6B58BE8AF95E5AD97E7ACA6F9
:1003A000E8BE93E587BA00E5B8B8E794A8E6B18956
:1003B000E5AD97E698BEE7A4BAE6B58BE8AF950041
:1003C000FFFFFFFFFFFFFFFFFFFFFFFFFFFFFF0735
:1003D00057535707FF0FE30FEFFFEFEFEF03EFEF79
:1003E000EF0FE30FEFFF77771757575357571777ED
:1003F00077FFFB8BAB83AB83AB8BFF37DBFFFFFF61
:10040000FFFFFFFFFFFFFFFFFFFFFFFFFFFFFF07F4
:1004100057535707FF0FE30FEFFFEFEFEF03EFEF38
:10042000EF0FE30FEFFF77771757575357571777AC
:1004300077FFFB8BAB83AB83AB8BFF37DBFFFFFF20
:10044000FFFFFFFFFFFFFFFFFFFFFFFFFFFFEEF5D7
:10045000FBF4EFE0FFF4FBF4EFFFE0EEEEEEEEE096
:10046000FFF4FBF5ECFFE2EFEFE1FDFDFDF9F7EF47
:10047000EEFFEBF2FAE2EAFAF2EBFFE0FDFFFFFF3C
:10048000FFFFFFFFFFFFFFFFFFFFFFFFFFFFEEF597
:10049000FBF4EFE0FFF4FBF4EFFFE0EEEEEEEEE056
:1004A000FFF4FBF5ECFFE2EFEFE1FDFDFDF9F7EF07
:1004B000EEFFEBF2FAE2EAFAF2EBFFE0FDFFFFFFFC
:1004C000FFFFFFFFFFFFFFFFFFFFFFFFFFFFFFFF3C
:1004D000FFFFFFFFE38181E3FFFFDFDDD54D9D00DF
:1004E0009D4DD5DDDFFFFBFB00FBFB9BEBFB0FE92D
:1004F000EEFFEFEE2AAAAAA8A20AAA6EEFFFFFFF5C
:10050000FFFFFFFFFFFFFFFFFFFFFFFFFFFFFFFFFB
:10051000FFFFFFFFE38181E3FFFFDFDDD54D9D009E
:100520009D4DD5DDDFFFFBFB00FBFB9BEBFB0FE9EC
:10053000EEFFEFEE2AAAAAA8A20AAA6EEFFFFFFF1B
:10054000FFFFFFFFFFFFFFFFFFFFFFFFFFFFFFFFBB
:10055000FFFFFFFFFFFCFCFFFFFFFDFDFEFF7F78BD
:100560007F7FFE7D7DBFBBBBBABA3ABBBBBDBE7D44
:100570007BBFBFBF78FAFAFAFAF8FFFFFEFFFFFF72
:10058000FFFFFFFFFFFFFFFFFFFFFFFFFFFFFFFF7B
:10059000FFFFFFFFFFFCFCFFFFFFFDFDFEFF7F787D
:1005A0007F7FFE7D7DBFBBBBBABA3ABBBBBDBE7D04
:1005B0007BBFBFBF78FAFAFAFAF8FFFFFEFFFFFF32
:1005C000FFFFFFFFFFFFFFFFFFFFFFFFFFFFFFFF3B
:1005D000FFFFFFFFFFFFFFFFFFFFFF7F87F8FFFF2A
:1005E000FF7F7EBDCF73BFDBDDBD7BFE7FBBDDDD6F
:1005F000BB7FE79F5FBE7D73EF9F7FFFFFFFFFFF26
:10060000FFFFFFFFFFFFFFFFFFFFFFFFFFFFFFFFFA
:10061000FFFFFFFFFFFFFFFFFFFFFF7F87F8FFFFE9
:10062000FF7F7EBDCF73BFDBDDBD7BFE7FBBDDDD2E
:10063000BB7FE79F5FBE7D73EF9F7FFFFFFFFFFFE5
:10064000FFFFFFFFFFFFFFFFFFFFFFFFFFFFFFFFBA
:10065000FFFFFFFFFFFFFFFFFFFFFFFCFD0DF2FCB1
:10066000FEFFFFEF1F3EDCE8EBEDDED7D6D4686B74
:10067000EDF6F7EF1FFEFDF30EFEFEFFFFFFFFFF9F
:10068000FFFFFFFFFFFFFFFFFFFFFFFFFFFFFFFF7A
:10069000FFFFFFFFFFFFFFFFFFFFFFFCFD0DF2FC71
:1006A000FEFFFFEF1F3EDCE8EBEDDED7D6D4686B34
:1006B000EDF6F7EF1FFEFDF30EFEFEFFFFFFFFFF5F
:1006C000FFFFFFFFC3813C7EFEFEFDF9FDFEFA66E3
:1006D000BD007EFEFEFDF9FDFEFA66BDC3FFFC73A4
:1006E000372FAFDEDFBFAC9BB7B76C6C6F6FB6B6A2
:1006F000DBCBD5AA2F377BFCFFFFFFFFFFFFFFFF00
:10070000FFFFFFFFC3813C7EFEFEFDF9FDFEFA66A2
:10071000BD007EFEFEFDF9FDFEFA66BDC3FFFC7363
:10072000372FAFDEDFBFAC9BB7B76C6C6F6FB6B661
:10073000DBCBD5AA2F377BFCFFFFFFFFFFFFFFFFBF
:10074000FFFFFFFFFFFFFFFEFCF9F3F7FBFDFEFFDE
:10075000FFFFFEFCF9F3F7FBFDFEFFDFDFC1C8DCA6
:10076000FFF8F7EFDFF8F2F2F8FCFEFCFCFEFCF815
:10077000F2D2E8F7F8FFDCC8C1C3C7FFFFFFFFFFF5
:10078000FFFFFFFFFFFFFFFEFCF9F3F7FBFDFEFF9E
:10079000FFFFFEFCF9F3F7FBFDFEFFDFDFC1C8DC66
:1007A000FFF8F7EFDFF8F2F2F8FCFEFCFCFEFCF8D5
:1007B000F2D2E8F7F8FFDCC8C1C3C7FFFFFFFFFFB5
:1007C000E4B8AD00F80808080808FF080808080899
:1007D000FC080000030101010101FF010101010109
:1007E000030000E69687080808186888090E0808BC
:1007F000C838080C08008080404020110A040A1103
:10080000102040C04000E6B58B10226C0080FC0434
:10081000F404FE04F800FE00000404FE014027106A
:100820000F10670047807F0000E8AF954042CC0082
:10083000109090909090FF101214100000007F20F4
:100840001020603F1010013E40807000E5AD970021
:10085000100C2424242526A4642404140C00000273
:100860000202020242827F0202020202030200E747
:10087000ACA6201008876C94869488878CF484C674
:100880008400040201FF0000020C0040807F000091
:100890000000E8BE9388681FC80C2890A8A6A1266F
:1008A0002810B01000090905FF0500FF0A8AFF00A3
:1008B0001F80FF0000E587BA0000FC40404040FF79
:1008C00040404040FC00000000FE40404040407F6F
:1008D0004040404040FE0000E5B8B82018080AEC4F
:1008E000A8A8AFA8A8EC0A082818000000003E023B
:1008F0000202FF0222423F02000000E794A800002B
:10090000FE22222222FE22222222FF0200008060FA
:100910001F020202027F020242827F000000E6B153
:10092000891022640C80047484040404C43E04000E
:100930000004047E01804020110A040B1060C040B6
:1009400000E5AD9700100C2424242526A46424047B
:10095000140C0000020202020242827F0202020222
:1009600002030200E698BE000000FE92929292926C
:100970009292FF020000004042444D407F404040C0
:100980007F404944664000E7A4BA404042424242A8
:1009900042C2424242434260400000100804064006
:1009A000807F000002040C180000E6B58B10226C5A
:1009B0000080FC04F404FE04F800FE00000404FEC1
:1009C000014027100F10670047807F0000E8AF95B7
:1009D0004042CC00109090909090FF1012141000A4
:1009E00000007F201020603F1010013E408070000A
:00000001FF
