:1000000002012C020006C0E0C0D075D000C000C0C4
:1000100002C003C004C005C006C00775090075080A
:1000200000C2907F087E00120257D29030B20302C5
:1000300001067B847A0320B213D3EB9400EA940088
:10004000400A120253EB1B70ED1A80EAC29020B2F4
:10005000030201067A017BF430B213D3EB9400EA79
:100060009400400A120253EB1B70ED1A80EAD29002
:10007000E4FDEDC39404748094804003020106748F
:100080000A2DF87600751600C3E51694087480945E
:1000900080506F7A007B3220B213D3EB9400EA9445
:1000A00000400A120253EB1B70ED1A80EAC2907AEC
:1000B000017BF430B224D3EB9400EA9400401B7F20
:1000C000507E001202570508EB1B70011AD3E50899
:1000D000941E7480948040DB8033D290740A2DF893
:1000E000C000E6C313D000F6C3E5089408748094FA
:1000F000804008740A2DF8E64480F675080005165D
:1001000080860D020072E50DF4650C60077509002C
:10011000D2908005750901D290D007D006D005D0C5
:1001200004D003D002D000D0D0D0E032787FE4F603
:10013000D8FD75811602017302022CE493A3F8E442
:1001400093A34003F68001F208DFF48029E493A32F
:10015000F85407240CC8C333C4540F4420C8834048
:1001600004F456800146F6DFE4800B010204081017
:10017000204080900262E47E019360BCA3FF543F64
:1001800030E509541FFEE493A360010ECF54C0254F
:10019000E060A840B8E493A3FAE493A3F8E493A33F
:1001A000C8C582C8CAC583CAF0A3C8C582C8CAC5A3
:1001B00083CADFE9DEE780BEE4FDEDC39408748006
:1001C00094805067EDB40800504D9001D1F8282874
:1001D000730201E90201ED0201F50201F9020201D7
:1001E00002020502020D020211C2A28002D2A2C2C4
:1001F000A3C2A48022C2A28002D2A2D2A3C2A4809F
:1002000016C2A28002D2A2C2A3D2A4800AC2A28035
:1002100002D2A2D2A3D2A4740E2DF8E6F5807F6498
:100220007E00120257E4F5800D808F22120270E5E5
:1002300009640170FAE50CC4540F90027993F50E2D
:10024000E50C540F93F50F900289E493F510120119
:10025000B880DC7F0A7E00EF1FAC0670011E4C7078
:10026000F622080E00000000000000000109000056
:10027000D288D2A8D2AFD2B2223F065B4F666D7D44
:0A028000077F6F777C395E79717695
:00000001FF
