:10000000020128020006C0E0C0D075D000C000C0C8
:1000100002C003C004C005C006C00775090075080A
:1000200000C29012024FD29030B2030201027B84D0
:100030007A0320B213D3EB9400EA9400400A120230
:100040004FEB1B70ED1A80EAC29020B2030201024E
:100050007A017BF430B213D3EB9400EA9400400AA7
:1000600012024FEB1B70ED1A80EAD290E4FDEDC353
:100070009404748094804003020102740A2DF8767F
:1000800000751600C3E516940874809480506F7A4A
:10009000007B3220B213D3EB9400EA9400400A12A2
:1000A000024FEB1B70ED1A80EAC2907A017BF430AC
:1000B000B224D3EB9400EA9400401B7F507E0012E0
:1000C00002530508EB1B70011AD3E508941E7480D7
:1000D000948040DB803AD290740A2DF8C000E6C3C9
:1000E00013D000F6C3E50894087480948040087427
:1000F0000A2DF8E64480F6750800051680860D0284
:10010000006EE50DF4F50C6007750901D2908005CD
:10011000750900D290D007D006D005D004D003D006
:1001200002D000D0D0D0E032787FE4F6D8FD7581DF
:100130001602016F020228E493A3F8E493A340039C
:10014000F68001F208DFF48029E493A3F854072431
:100150000CC8C333C4540F4420C8834004F45680F1
:100160000146F6DFE4800B01020408102040809075
:10017000025EE47E019360BCA3FF543F30E5095466
:100180001FFEE493A360010ECF54C025E060A84099
:10019000B8E493A3FAE493A3F8E493A3C8C582C890
:1001A000CAC583CAF0A3C8C582C8CAC583CADFE965
:1001B000DEE780BEE4FDEDC3940874809480506750
:1001C000EDB40800504D9001CDF82828730201E5E8
:1001D0000201E90201F10201F50201FD0202010240
:1001E000020902020DC2A28002D2A2C2A3C2A4804E
:1001F00022C2A28002D2A2D2A3C2A48016C2A2802E
:1002000002D2A2C2A3D2A4800AC2A28002D2A2D2E7
:10021000A3D2A4740E2DF8E6F5807F647E0012024E
:1002200053E4F5800D808F2212026CE509640170A1
:10023000FAE50CC4540F90027593F50EE50C540FBB
:1002400093F50F900285E493F5101201B480DC7FE2
:100250000A7E00EF1FAC0670011E4C70F622080EDD
:10026000000000000000000001090000D288D2A8B0
:10027000D2AFD2B2223F065B4F666D7D077F6F77AC
:060280007C395E79717605
:00000001FF
