:0300000002009E5D
:10000B0002000EC0E0C083C082C0D075D008758CD2
:10001B00F5758AE074232521F8E690023893F58074
:10002B00E521B40800504D900039F82828730200E0
:10003B005102005502005902005D02006102006985
:10004B00020071020079C2A4800EC2A48012C2A465
:10005B008016C2A4801AD2A4C2A3C2A28016D2A4B4
:10006B00C2A3D2A2800ED2A4D2A3C2A28006D2A4D3
:10007B00D2A3D2A20521E5216408700EF521052239
:10008B00E522640A7004D200F522D0D0D082D0834E
:10009B00D0E032787FE4F6D8FD7581310200E502BD
:1000AB000177E493A3F8E493A34003F68001F208ED
:1000BB00DFF48029E493A3F85407240CC8C333C49A
:1000CB00540F4420C8834004F456800146F6DFE405
:1000DB00800B0102040810204080900220E47E0176
:1000EB009360BCA3FF543F30E509541FFEE493A378
:1000FB0060010ECF54C025E060A840B8E493A3FA8A
:10010B00E493A3F8E493A3C8C582C8CAC583CAF015
:10011B00A3C8C582C8CAC583CADFE9DEE780BEE4CF
:10012B00FDC2B50000C2B60000D2B500001201DB63
:10013B00C2B6000000D2B6E4FFEFC39408748094FB
:10014B00805014EDC313FD30B403430580C2B600D9
:10015B000000D2B60F80E2C2B50000D2B60000C2DA
:10016B00B40000D2B40000ED547FFF221202103015
:10017B0000FDC2001201B1E52DC4540FF523E52D8E
:10018B00540FF52475250AE52CC4540FF526E52CE0
:10019B00540FF52775280AE52BC4540FF529E52BC9
:1001AB00540FF52A80C97BFF7A027931E4FCECC34A
:1001BB0094077480948050171201F7FF12012A7470
:1001CB002B2CF8A607740129F9E43AFA0C80DF22EC
:1001DB00E4FEEEC3940874809480500FC2B6EF1304
:1001EB0092B4EFC313FFD2B60E80E722BB01068990
:1001FB00828A83E0225002E722BBFE02E32289823D
:10020B008A83E49322438901758CEF758AF0D2A916
:10021B00D28CD2AF22072B321214040407150080A4
:10022B00828486888A8C81838587898B8D3F065B48
:08023B004F666D7D077F6F40E7
:00000001FF
