:0300000002009E5D
:10000B0002000EC0E0C083C082C0D075D008758CD2
:10001B00F5758AE074232521F8E69002B293F580FA
:10002B00E521B40800504D900039F82828730200E0
:10003B005102005502005902005D02006102006985
:10004B00020071020079C2A2800EC2A28012C2A26B
:10005B008016C2A2801AD2A2C2A3C2A48016D2A2B8
:10006B00C2A3D2A4800ED2A2D2A3C2A48006D2A2D3
:10007B00D2A3D2A40521E5216408700EF521052237
:10008B00E522640A7004D200F522D0D0D082D0834E
:10009B00D0E032787FE4F6D8FD7581310200E502BD
:1000AB0001DAE493A3F8E493A34003F68001F2088A
:1000BB00DFF48029E493A3F85407240CC8C333C49A
:1000CB00540F4420C8834004F456800146F6DFE405
:1000DB00800B010204081020408090029AE47E01FC
:1000EB009360BCA3FF543F30E509541FFEE493A378
:1000FB0060010ECF54C025E060A840B8E493A3FA8A
:10010B00E493A3F8E493A3C8C582C8CAC583CAF015
:10011B00A3C8C582C8CAC583CADFE9DEE780BEE4CF
:10012B00FCECC39407748094805021742B2CF8E65C
:10013B00FF75F00A84FEEF75F00A84A6F0EEC45446
:10014B00F0FF742B2CF8EF26F60C80D5E4FD7F8E98
:10015B001202767BFF7A0279A4E4FCECC394077459
:10016B00809480501712025DFF742B2CF8E6FD1261
:10017B000276740129F9E43AFA0C80DF7D807F8ED8
:10018B00020276E4FDC2B50000C2B60000D2B50093
:10019B0000120241E4FFEFC3940874809480501462
:1001AB0030B403430580C2B6EDC313FD000000D28B
:1001BB00B60F80E2C2B50000C2B5C2B600000000A7
:1001CB00D2B60000C2B40000D2B40000AF052212B8
:1001DB00028A12012A3000FDC200120217E52DC45B
:1001EB00540FF523E52D540FF52475250AE52CC482
:1001FB00540FF526E52C540FF52775280AE52BC46B
:10020B00540FF529E52B540FF52A80C97BFF7A0291
:10021B0079ABE4FCECC39407748094805017120202
:10022B005DFF12018E742B2CF8A607740129F9E4DB
:10023B003AFA0C80DF22E4FEEEC3940874809480BB
:10024B00500FC2B6EF1392B4EFC313FFD2B60E80AA
:10025B00E722BB010689828A83E0225002E722BB98
:10026B00FE02E32289828A83E49322C2B500C2B6DE
:10027B0000D2B500120241AF05120241C2B52243B2
:10028B008901758CEF758AF0D2A9D28CD2AF220777
:10029B002B00000C0F0503080080828486888A8C53
:1002AB0081838587898B8D3F065B4F666D7D077FCD
:0202BB006F4092
:00000001FF
