:10000000020003787FE4F6D8FD75812A02004A02D7
:100010000213E493A3F8E493A34003F68001F208EB
:10002000DFF48029E493A3F85407240CC8C333C435
:10003000540F4420C8834004F456800146F6DFE4A0
:10004000800B01020408102040809002E3E47E014E
:100050009360BCA3FF543F30E509541FFEE493A313
:1000600060010ECF54C025E060A840B8E493A3FA25
:10007000E493A3F8E493A3C8C582C8CAC583CAF0B1
:10008000A3C8C582C8CAC583CADFE9DEE780BEE46B
:10009000FDEDC3940874809480506BEDB40800505B
:1000A0004D9000A8F82828730200C00200C4020086
:1000B000CC0200D00200D80200DC0200E40200E81A
:1000C000C2A28002D2A2C2A3C2A48022C2A2800283
:1000D000D2A2D2A3C2A48016C2A28002D2A2C2A37C
:1000E000D2A4800AC2A28002D2A2D2A3D2A4742334
:1000F0002DF8E690030393F5807F647E001202D80A
:10010000E4F5800D808B22BB010689828A83E02280
:100110005002E722BBFE02E32289828A83E4932213
:10012000BC000BBE0029EF8DF084FFADF022E4CCC3
:10013000F875F008EF2FFFEE33FEEC33FCEE9DEC8C
:10014000984005FCEE9DFE0FD5F0E9E4CEFD22EDD2
:10015000F8F5F0EE8420D21CFEADF075F008EF2F1C
:10016000FFED33FD4007985006D5F0F222C398FD0D
:100170000FD5F0EA227BFF7A0279EE1201CC8B0ECA
:100180008A0F8910E4FD7F8E1202B2750BFF750C89
:1001900002750DF5E4FCECC394087480948050253E
:1001A000AB0BAA0CA90D120107FFAB0EAA0FA910E9
:1001B000120107FD1202B20C7401250DF50DE43594
:1001C0000CF50C80D17D807F8E0202B28B118A12D9
:1001D0008913E4F514C3E514940774809480502CBB
:1001E000AB11AA12A913120107FB75F010A4FFAE00
:1001F000F07C007D0A120120EB75F00A84E5F02FF7
:10020000FF74152514F8A607051480C97B007A0031
:10021000791522120175120248E51C540FF52AE5E2
:100220001C440FF529752810E51D540FF527E51D11
:10023000440FF526752510E51E540FF524E51E44E0
:100240000FF52312008F80CE7BFF7A0279FCE4FD4C
:10025000EDC39408748094805017120107FF1202B6
:10026000C6741C2DF8A6070D740129F9E43AFA802A
:10027000DF22E4FEEEC39408748094805014C2B66A
:1002800000EFC313FF30B40343078000D2B6000E63
:1002900080E222E4FEEEC39408748094805012C27F
:1002A000B600EF1392B400D2B600EFC313FF0E8076
:1002B000E422C2B500C2B600D2B500120293AF0567
:1002C000120293C2B522C2B500C2B600D2B5001266
:1002D0000293120272C2B522EF1FAC0670011E4CCF
:1002E00070F622082300000000000000000000005B
:1002F000000404071580828486888A8C8183858720
:10030000898B8D3F065B4F666D7D077F6F777C39EC
:040310005E79714061
:00000001FF
