:10000000020006020016787FE4F6D8FD758107022B
:02001000006D81
:1000130002003CC0E0C0D075D000C004C006C007D9
:100023007FD07E0712006220B204B2A0D2B2D00702
:10003300D006D004D0D0D0E032C0E0C0D075D0001C
:10004300C004C006C0077FD07E0712006220B3043D
:10005300B2A1D2B2D007D006D004D0D0D0E032EFD4
:100063001FAC0670011E4C70F62212007512007C44
:1000730080FED288D2A8D2AF22D28AD2AAD2AF220D
:00000001FF
