:10000000020003787FE4F6D8FD75811802004A02E9
:1000100000CFE493A3F8E493A34003F68001F20831
:10002000DFF48029E493A3F85407240CC8C333C435
:10003000540F4420C8834004F456800146F6DFE4A0
:10004000800B0102040810204080900109E47E0129
:100050009360BCA3FF543F30E509541FFEE493A313
:1000600060010ECF54C025E060A840B8E493A3FA25
:10007000E493A3F8E493A3C8C582C8CAC583CAF0B1
:10008000A3C8C582C8CAC583CADFE9DEE780BEC28D
:10009000A58F807F017E001200A0D2A77F057E0081
:1000A000D3EF9400EE940040257DC7EDD394007407
:1000B00080948040127C01ECD39400748094804042
:1000C000031C80F31D80E4EF1F70D51E80D2221226
:1000D00000F0E4F518C3E518941074809480500E75
:1000E00074082518F8E6FF120126051880E780FE3F
:1000F0007F3812011C7F0C12011C7F0612011C7F2D
:100100000112011C7F8002011C10082050656368E9
:10011000696E20536369656E63652000C2A7C2A63D
:1001200012008FC2A722C2A7D2A612008FC2A72296
:00000001FF
