:10000000020003787FE4F6D8FD75811802004A02E9
:1000100000E7E493A3F8E493A34003F68001F20819
:10002000DFF48029E493A3F85407240CC8C333C435
:10003000540F4420C8834004F456800146F6DFE4A0
:10004000800B0102040810204080900147E47E01EB
:100050009360BCA3FF543F30E509541FFEE493A313
:1000600060010ECF54C025E060A840B8E493A3FA25
:10007000E493A3F8E493A3C8C582C8CAC583CAF0B1
:10008000A3C8C582C8CAC583CADFE9DEE780BEC28D
:10009000A58B807F017E001200B8D2A77F057E006D
:1000A0001200B8C2A7EBC454F0F5807F017E0012A5
:1000B00000B8D2A77F057E00D3EF9400EE940040F5
:1000C000257DC7EDD394007480948040127C01ECB0
:1000D000D394007480948040031C80F31D80E4EF6F
:1000E0001F70D51E80D22274302401FF120129E432
:1000F000F518C3E518941074809480500E74082588
:1001000018F8E6FF120166051880E77FC012015A51
:10011000E4F518C3E51894107480948050097F4268
:10012000120166051880EC80FE7F3212015A7F288A
:1001300012015A7F0C12015A7F0612015A7F0112D6
:10014000015A7F8002015A10082050656368696E69
:1001500020536369656E63652000AB07C2A7C2A622
:1001600012008FC2A722AB07C2A7D2A612008FC26D
:02017000A722C4
:00000001FF
