:100000000200AEC290E4FDEDC3946474809480500D
:1000100015D2907F407E1F1200BAC2907FD07E071B
:100020001200BA0D80E1E4FDEDC394647480948005
:100030005015D2907F707E171200BAC2907FA07EBA
:100040000F1200BA0D80E1E4FDEDC3946474809456
:10005000805015D2907F887E131200BAC2907F889C
:100060007E131200BA0D80E1E4FDEDC39464748048
:1000700094805015D2907FA07E0F1200BAC2907F5C
:10008000707E171200BA0D80E1E4FDEDC394647434
:100090008094805015D2907FD07E071200BAC29013
:1000A0007F407E1F1200BA0D80E1C29080FE787FF3
:1000B000E4F6D8FD758107020003EF1FAC0670015E
:0500C0001E4C70F62249
:00000001FF
