:1000000002000E12008D12009D80FE020066787FB5
:0A001000E4F6D8FD75810C02000330
:10001B0002001EC0E0C083C082C0D075D000C007F4
:10002B00758DFC758B18050BE50B7002050AB4E892
:10003B001FE50AB4031A750A00750B00AF0C050C0B
:10004B00EF9000AD93F4F580E50C64107002F50CA5
:10005B00D007D0D0D082D083D0E032C0E0C0D075F2
:10006B008CFC758A180509E50970020508B4E80DC2
:10007B00E508B40308750800750900B2A0D0D0D00C
:10008B00E032438901758CFC758A18D2A9D2AFD2A4
:10009B008C22438910758DFC758B18D2ABD2AFD2E5
:1000AB008E223F065B4F666D7D077F6F777C395ED7
:0200BB00797159
:00000001FF
