:1000000002000E12006C12007C80FE02001E787F3F
:0A001000E4F6D8FD75810B02000331
:10001B00020045C0E0C0D0758CFC758A180509E557
:10002B000970020508B4E80DE508B403087508006B
:10003B00750900B2A0D0D0D0E032C0E0C0D0758D31
:10004B00FC758B18050BE50B7002050AB4D00DE59A
:10005B000AB40708750A00750B00B2A1D0D0D0E026
:10006B0032438901758CFC758A18D2A9D2AFD28C18
:10007B0022438910758DFC758B18D2ABD2AFD28E03
:01008B002252
:00000001FF
