:10000000020095E5086432700BF5087FE412023BAC
:100010008E118F120508AE11AF127C037DE812011C
:100020009574812FF58274023EF583E493F509AE51
:1000300011AF127C037DE81201957E007F64CFCD65
:10004000CFCECCCE12019574812FF58274023EF58D
:1000500083E493F50AAE11AF127C007D6412019522
:100060007E007F0ACFCDCFCECCCE12019574812FEA
:10007000F58274023EF583E493F50BAE11AF127C6A
:10008000007D0A12019574812DF58274023CF5837E
:10009000E493F50C22787FE4F6D8FD758112020016
:1000A000DC020279E493A3F8E493A34003F6800111
:1000B000F208DFF48029E493A3F85407240CC8C3A2
:1000C00033C4540F4420C8834004F456800146F6DC
:1000D000DFE4800B010204081020408090026EE4EF
:1000E0007E019360BCA3FF543F30E509541FFEE43A
:1000F00093A360010ECF54C025E060A840B8E493FC
:10010000A3FAE493A3F8E493A3C8C582C8CAC5833D
:10011000CAF0A3C8C582C8CAC583CADFE9DEE780C2
:10012000BEE4FDEDC39408748094805067EDB4087C
:1001300000504D90013AF8282873020152020156EE
:1001400002015E02016202016A02016E0201760290
:10015000017AC2A28002D2A2C2A3C2A48022C2A2F9
:100160008002D2A2D2A3C2A48016C2A28002D2A2CE
:10017000C2A3D2A4800AC2A28002D2A2D2A3D2A4D5
:1001800074092DF8E6F5807F647E00120263E4F5C1
:10019000800D808F22BC000BBE0029EF8DF084FF04
:1001A000ADF022E4CCF875F008EF2FFFEE33FEEC53
:1001B00033FCEE9DEC984005FCEE9DFE0FD5F0E97A
:1001C000E4CEFD22EDF8F5F0EE8420D21CFEADF079
:1001D00075F008EF2FFFED33FD4007985006D5F07E
:1001E000F222C398FD0FD5F0EA22C2B6E4FEEEC3B8
:1001F000940874809480501AEFC41313135401248C
:10020000FF92B4EF25E0FFC2B60000D2B600000EA8
:1002100080DC22E4FFFEC2B6FDFCEF25E0FFEE33FA
:10022000FED2B60000C2B60000A2B7E43342070D0A
:10023000BD00010CED640C4C70E022C2B6C2B512D8
:1002400001EA7F0CEFD394007480948040031F80F8
:10025000F3D2B600000000C2B60000000012021384
:10026000D2B522EF1FAC0670011E4C70F6220809B1
:1002700000000000000000000012000312012180B5
:10028000F83F065B4F666D7D077F6F777C395E793F
:0102900071FC
:00000001FF
