:100000000201B98F098B0A8A0B890CAE05EED394D5
:10001000077480948040037F0022E509D3948074A4
:1000200080948040037F002274B02EFEFF1201698D
:10003000AB0AAA0BA90C12017A6069AF061201691A
:10004000E509C4540FFDE509540FFC12015E750D5E
:1000500008E4FBEBF582758300C3942074809480E0
:100060005031E58264107009EE04FF12016912013B
:100070005EE50DC43354E024C5F582E43401F58314
:10008000E5822BF582E43583F583E493FF1201A822
:100090000B80C074102509F509150DE50D709175DB
:1000A0000D08808C7F0122C2B37F017E0012013EC9
:1000B000C2B2D2B37FE21201697F0112013E7FA179
:1000C0001201697FC81201697FA61201697FA4121B
:1000D00001697FA21201697FF81201697F01120193
:1000E000697F811201697F231201697F25120169ED
:1000F0007F2F1201697F0112013E7F401201697F4B
:10010000AF1201697F0102013EE4FEEEC394087460
:100110008094805028EE24B0FF1201697F101201F4
:10012000697F04120169E4FDEDC3948074809480BA
:100130005008E4FF1201A80D80EE0E80CE22E4FDEF
:10014000FCE4FBFAC3EB9FEA9E50070BBB00010ADD
:1001500080F20DBD00010CED64634C70E422ED24CF
:1001600010FF120169EC2404FFC2B2C2A6D2A5C2DC
:10017000A700008F800000D2A722BB010689828AD7
:1001800083E0225002E722BBFE02E32289828A83B7
:10019000E493221200A71201097BFF7A0279C5AD10
:1001A00008E4FF12000380F1C2B2D2A6D2A5C2A712
:1001B00000008F800000D2A722787FE4F6D8FD757A
:1001C000810D0201930040445464457E4444447EC2
:1001D000456454444000000000FF494949494949E9
:1001E00049FF0000000000FC08080808FF08080894
:1001F00008FC08000000000702020202FF020202DF
:100200000207000000000000FF0000CC2200915116
:10021000FE72921210000101FF02020204040400A7
:10022000FF00010204000848C8487F4848C8002869
:1002300048FF88080800206021120C0C1320404061
:10024000007F80410100040404E4242424272C348A
:10025000E444840400000000007FC9492909090919
:10026000FF000001020000007E4A4A4ACA4AFE001E
:10027000824E3202FE00206021120C032040FF005B
:1002800003040200FF008080C060100E0000840E96
:100290003040800000000001307814101031232419
:1002A00028702001000000FE0202129292929292A7
:1002B000929292100000003F4020000F04040404BA
:1002C00004041F0000E58FB8E585ACE99990E69C31
:0E02D00089E68A80E7A791E4B8ADE699AE0012
:00000001FF
